:100000000C9462000C947F000C947F000C947F0091
:100010000C947F000C947F000C947F000C947F0064
:100020000C947F000C947F000C947F000C947F0054
:100030000C947F000C947F000C947F000C947F0044
:100040000C947F000C947F000C947F000C947F0034
:100050000C947F000C947F000C947F000C947F0024
:100060000C947F000C947F005220202020202D2013
:1000700072657365742074696D6572730054206EC7
:100080002020202D2073746172742074696D657254
:100090002030207769746820777261703D6E004C63
:1000A00020642020202D20736574204C454400439B
:1000B0006C6F636B207465737420302E3100457251
:1000C000726F720011241FBECFEFD8E0DEBFCDBF2C
:1000D00011E0A0E0B1E0E2E1F6E002C005900D928F
:1000E000A431B107D9F721E0A4E1B1E001C01D922C
:1000F000AB38B207E1F70E94C6010C9407030C94D9
:1001000000008EEB90E00C94D6021092C50087E6BA
:100110008093C400E2ECF0E0808186608083E1ECB3
:10012000F0E08081886180830895CF93C82F8A3062
:1001300019F48DE00E9495008091C00085FFFCCFEE
:10014000C093C60090E080E0CF9108958091C000F8
:10015000807890E008958091C00087FFFCCF809167
:10016000C6008D3009F48AE090E00895EF92FF9286
:100170001F93CF93DF937C01EC0190E080E00E941D
:10018000AB00182F60918701709188018A3051F47B
:1001900090E00E94A6021882DF91CF911F91FF90FC
:1001A000EF900895883049F4EC16FD0630F488E0AD
:1001B00090E00E94A6022197E0CF812F90E00E945C
:1001C000A60218832196D9CFEF92FF920F931F9327
:1001D000CF93DF937C01D0E0C0E0F70101917F0174
:1001E000011108C0CE01DF91CF911F910F91FF90B7
:1001F000EF90089584E0CC0FDD1F8A95E1F7002E83
:10020000000C110BC8010E944602892B31F3C80172
:10021000C0978A30910518F4C80FD91FDECFC801E6
:100220000E945202C797F8CFCF93DF93EC01FC01F5
:1002300001900020E9F73197E81BF90B339770F034
:1002400042E050E06EE071E00E945F02892B31F4E1
:10025000CE010296DF91CF910C94E400CE01DF91A4
:10026000CF910C942802CF92DF92EF92FF920F93DE
:100270001F93CF93DF938B017A01690161E171E0F4
:100280000E945A02009769F1E801899399930E94AC
:100290001401F701819391938F01EE24E394F12CE3
:1002A00061E171E090E080E00E945A02009719F04D
:1002B000EC14FD0454F0C701DF91CF911F910F9111
:1002C000FF90EF90DF90CF900895899399930E94CB
:1002D0001401F801819391938F01FFEFEF1AFF0A48
:1002E000DFCFF12CE12CE7CF9FB7F89483B583687B
:1002F00083BD16BC21E030E030938500209384005C
:1003000084B58F7B84BD84B5806884BDE0E8F0E06F
:1003100080818F7B8083808180688083A2E8B0E0C9
:100320008C91806C8C9385B5806C85BD84B5806420
:1003300084BD84B58F7784BD808180648083808113
:100340008F7780839FBF13BC08959C012160569ACC
:1003500094B5926094BD94B5906494BD95B5916048
:1003600095BD17BC219AE1E8F0E0908198609083F8
:10037000908191609083E0E8F0E0908190649083B8
:1003800030938900209388000C9474010E948500AA
:1003900080E091E09093880180938701909386019B
:1003A00080938501259A2D988FEA90E00E94D602CD
:1003B00060918701709188018EE390E00E94A6020F
:1003C00060E570E08CE291E00E94B60026E030E04B
:1003D00044E151E060E271E08CE291E00E9433017F
:1003E000EC01E0912001F09121018081082E000CA8
:1003F000990B0E9452028C34E1F02CF4883471F095
:100400000E948100D5CF823501F18435C9F78091F2
:100410001601909117010E94A501CACF8FE990E0C3
:100420000E94D6028DE790E00E94D60288E690E016
:10043000BDCF22972CF38091160190911701892B43
:1004400011F02D9AB5CF2D98B3CF0E947401B0CF83
:10045000FC0188279927E89421912032E9F329307B
:1004600010F02E30C8F32B3241F02D3239F468945D
:1004700004C00E949E02820F911D219120532A30B8
:10048000C0F31EF4909581959F4F089591110C949F
:10049000040380538A5028F0865C8062815686501F
:1004A000B0F708959111089581568A5108F4805249
:1004B000855808954CE751E00E9477020895FB01AA
:1004C000DC014150504088F08D9181341CF08B3517
:1004D0000CF4805E619161341CF06B350CF4605E4D
:1004E000861B611171F3990B0895881BFCCFFA01EB
:1004F000A191B081009719F41097E1F0CD01DC01D2
:10050000CD010D90002011F4C00113C0FB01219119
:10051000222319F02015D9F7F3CFFB0121912015E3
:1005200019F41E92119606C02223C1F70D900020E7
:10053000A1F7D001FA01A193B08308957AE0979FC3
:10054000902D879F802D910D112408950F931F9357
:10055000CF93DF93182F092FEB018B8181FD09C009
:100560001FEF0FEF812F902FDF91CF911F910F91F0
:10057000089582FF14C02E813F818C819D812817B0
:1005800039073CF4E881F981CF010196998388838A
:1005900010838E819F8101969F838E83E3CFE885B0
:1005A000F985812F0995892BA1F3DACF0F931F933A
:1005B000CF93DF938C01E0918701F09188018381D3
:1005C000D0E0C0E081FD0AC0CFEFDFEF17C0099592
:1005D000892B11F0CFEFDFEF0F5F1F4FF8018491F0
:1005E0006091870170918801DB011896ED91FC9173
:1005F0008111EDCF8AE00995892B31F7CE01DF918A
:10060000CF911F910F910895992788270895F89405
:02061000FFCF1A
:1006120000000003000000009500AB0000003078ED
:0406220000200000B4
:00000001FF
