:100000000C9458000C9475000C9475000C947500B9
:100010000C9475000C9475000C9475000C9475008C
:100020000C9475000C9475000C9475000C9475007C
:100030000C9475000C9475000C9475000C9475006C
:100040000C9475000C9475000C9475000C9475005C
:100050000C9475000C9475000C9475000C9475004C
:100060000C9475000C94750054206E2020202D20D7
:1000700073746172742074696D65722030207769C1
:10008000746820777261703D6E004C2064202020DF
:100090002D20736574204C454400436C6F636B20C6
:1000A0007465737420302E31004572726F720000D7
:1000B00011241FBECFEFD8E0DEBFCDBF11E0A0E01E
:1000C000B1E0E4E8F5E002C005900D92A431B1077B
:1000D000D9F721E0A4E1B1E001C01D92AB38B2072D
:1000E000E1F70E9489010C94C0020C94000089EA97
:1000F00090E00C948F021092C50087E68093C400B4
:10010000E2ECF0E0808186608083E1ECF0E08081C9
:10011000886180830895CF93C82F8A3019F48DE0C9
:100120000E948B008091C00085FFFCCFC093C60069
:1001300090E080E0CF9108958091C000807890E0B9
:1001400008958091C00087FFFCCF8091C6008D305C
:1001500009F48AE090E00895EF92FF921F93CF9305
:10016000DF937C01EC0190E080E00E94A100182F59
:1001700060918701709188018A3051F490E00E946B
:100180005F021882DF91CF911F91FF90EF90089549
:10019000883049F4EC16FD0630F488E090E00E94C7
:1001A0005F022197E0CF812F90E00E945F021883C9
:1001B0002196D9CFEF92FF920F931F93CF93DF93A6
:1001C0007C01D0E0C0E0F70101917F01011108C07E
:1001D000CE01DF91CF911F910F91FF90EF90089585
:1001E00084E0CC0FDD1F8A95E1F7002E000C110B87
:1001F000C8010E94FF01892B31F3C801C0978A30E2
:10020000910518F4C80FD91FDECFC8010E940B0258
:10021000C797F8CFCF93DF93EC01FC01019000204A
:10022000E9F73197E81BF90B339770F042E050E0A3
:100230006EE071E00E941802892B31F4CE01029623
:10024000DF91CF910C94DA00CE01DF91CF910C9425
:10025000E101CF92DF92EF92FF920F931F93CF9322
:10026000DF938B017A01690161E171E00E94130261
:10027000009769F1E801899399930E940A01F701B7
:10028000819391938F01EE24E394F12C61E171E06D
:1002900090E080E00E941302009719F0EC14FD0436
:1002A00054F0C701DF91CF911F910F91FF90EF9014
:1002B000DF90CF900895899399930E940A01F801E5
:1002C000819391938F01FFEFEF1AFF0ADFCFF12C9B
:1002D000E12CE7CF9C01569A94B5926094BD94B5F9
:1002E000906494BD95B5916095BD17BC219AE1E8E5
:1002F000F0E0908198609083908191609083E0E835
:10030000F0E090819064908330938900209388007E
:1003100008950E947B0080E091E090938801809393
:1003200087019093860180938501259A2D988AE90B
:1003300090E00E948F0260918701709188018EE3A6
:1003400090E00E945F0260E570E08CE291E00E9424
:10035000AC0026E030E044E151E060E271E08CE284
:1003600091E00E942901EC01E0912001F09121012E
:100370008081082E000C990B0E940B028C3459F0DE
:100380008435C1F0883449F48AE890E00E948F02F5
:1003900088E690E0CECF22971CF40E947700CBCF66
:1003A0008091160190911701892B11F02D9AC3CFDE
:1003B0002D98C1CF80911601909117010E946A017A
:1003C000BACFFC0188279927E89421912032E9F3DC
:1003D000293010F02E30C8F32B3241F02D3239F491
:1003E000689404C00E945702820F911D21912053EE
:1003F0002A30C0F31EF4909581959F4F0895911176
:100400000C94BD0280538A5028F0865C806281562D
:100410008650B0F708959111089581568A5108F4D5
:100420008052855808954CE751E00E9430020895AB
:10043000FB01DC014150504088F08D9181341CF06B
:100440008B350CF4805E619161341CF06B350CF4DB
:10045000605E861B611171F3990B0895881BFCCFB8
:10046000FA01A191B081009719F41097E1F0CD0144
:10047000DC01CD010D90002011F4C00113C0FB017F
:100480002191222319F02015D9F7F3CFFB012191F7
:10049000201519F41E92119606C02223C1F70D9063
:1004A0000020A1F7D001FA01A193B08308957AE06A
:1004B000979F902D879F802D910D112408950F9364
:1004C0001F93CF93DF93182F092FEB018B8181FDB1
:1004D00009C01FEF0FEF812F902FDF91CF911F9158
:1004E0000F91089582FF14C02E813F818C819D81E0
:1004F000281739073CF4E881F981CF0101969983E7
:10050000888310838E819F8101969F838E83E3CFA2
:10051000E885F985812F0995892BA1F3DACF0F930F
:100520001F93CF93DF938C01E0918701F0918801B5
:100530008381D0E0C0E081FD0AC0CFEFDFEF17C0BC
:100540000995892B11F0CFEFDFEF0F5F1F4FF801F7
:1005500084916091870170918801DB011896ED917B
:10056000FC918111EDCF8AE00995892B31F7CE01FD
:10057000DF91CF911F910F910895992788270895B2
:04058000F894FFCF1D
:1005840000000003000000008B00A1000000307890
:040594000020000043
:00000001FF
